:020000040800F2
:10000000180A002089020008F1020008F102000825
:10001000F1020008F1020008F102000800000000EF
:10002000000000000000000000000000F1020008D5
:10003000F102000800000000F1020008DD090008DC
:10004000F1020008F1020008F1020008F1020008C4
:10005000F1020008F1020008F1020008F1020008B4
:10006000F1020008F1020008F1020008F1020008A4
:10007000F1020008F1020008F1020008F102000894
:10008000F1020008F1020008F1020008F102000884
:10009000F1020008F1020008F1020008F102000874
:1000A000F1020008F1020008F1020008F102000864
:1000B000F1020008F1020008F1020008F102000854
:1000C000F1020008F1020008F1020008F102000844
:1000D000F1020008010A0008F1020008F10200081C
:1000E000F1020008F1020008F1020008000000001F
:1000F0000000000000000000000000000000000000
:1001000000000000000000005FF808F180B500AFBB
:10011000154B154A126842F001021A60124A124B3E
:100120005968124B01EA030353600F4A0E4B1B68D8
:1001300023F0847323F4803313600B4B0A4A126854
:1001400022F480221A60084B074A526822F4FE0209
:100150005A60054B4FF41F029A6000F00BF8044BF5
:100160004FF000629A6080BD001002400000FFF86E
:1001700000ED00E080B500AF00F002F880BD00BFE8
:1001800080B483B000AF4FF000037B604FF00003FA
:100190003B603B4B3A4A126842F480321A60384B5B
:1001A0001B6803F400333B607B6803F101037B6051
:1001B0003B68002B03D17B68B3F5A06FEFD1304BC8
:1001C0001B6803F40033002B03D04FF001033B60A6
:1001D00002E04FF000033B603B68012B4BD1294B01
:1001E000284A126842F010021A60264B254A12680B
:1001F00022F003021A60234B224A126842F00202E4
:100200001A601F4B1E4A52685A601D4B1C4A5268A6
:100210005A601B4B1A4A526842F480625A60184B6B
:10022000174A526822F47C125A60154B144A5268DD
:1002300042F4E8125A60124B114A126842F080727E
:100240001A6000BF0E4B1B6803F00073002BF9D03F
:100250000B4B0B4A526822F003025A60084B084AC3
:10026000526842F002025A6000BF054B5B6803F01F
:100270000C03082BF9D107F10C07BD4680BC704771
:10028000001002400020024080B582B000AF134B46
:100290007B60134B3B600BE07B681A683B681A601D
:1002A0003B6803F104033B607B6803F104037B605C
:1002B0003A680C4B9A42EFD30B480C494FF00002BE
:1002C0008842B8BF40F8042BFADBFFF71FFF00F0AD
:1002D00013FB07F10807BD4680BD00BFD897000893
:1002E00000000020BC050020BC05002014060020F2
:1002F00080B400AFFEE700BF80B582B000AF4FF022
:100300000003FB714FE0FA792A4913464FEA830351
:100310009B184FEA8303CB1803F10C031B681846A4
:100320004FF0010100F066FCFA79224913464FEACA
:1003300083039B184FEA8303CB1803F108031B8840
:100340003B804FF01003FB704FF00303BB70FA7952
:10035000184913464FEA83039B184FEA8303CB18CF
:1003600003F104031A683B461046194600F0A8F84A
:10037000FA79104913464FEA83039B184FEA830327
:10038000CB1803F110031B78002B04D1FB7918461E
:1003900000F012F803E0FB79184600F035F8FB791D
:1003A00003F10103FB71FB79002BACD007F10807C7
:1003B000BD4680BD1400002080B582B000AF03466A
:1003C000FB71FA790F4913464FEA83039B184FEAF2
:1003D0008303CB1803F104031968FA79094813461B
:1003E0004FEA83039B184FEA8303C31803F1080302
:1003F0001B880846194600F067F907F10807BD4653
:1004000080BD00BF1400002080B582B000AF03465D
:10041000FB71FA790F4913464FEA83039B184FEAA1
:100420008303CB1803F104031968FA7909481346CA
:100430004FEA83039B184FEA8303C31803F10803B1
:100440001B880846194600F031F907F10807BD4638
:1004500080BD00BF1400002090B482B000AF0346FE
:10046000FB71FA79154913464FEA83039B184FEA4B
:100470008303CB1803F104031968FA790F48134674
:100480004FEA83039B184FEA8303C31803F1040365
:100490001B68D868FA79094C13464FEA83039B1806
:1004A0004FEA8303E31803F108031B8880EA030380
:1004B000CB6007F10807BD4690BC704714000020D0
:1004C00080B489B000AF786039604FF00003FB6101
:1004D0004FF000033B614FF00003BB614FF000039E
:1004E000FB604FF000037B614FF00003BB603B6893
:1004F000DB7803F00F03FB613B68DB7803F010034C
:10050000002B05D03B689B78FA6942EA0303FB6144
:100510003B681B8803F0FF03002B51D07B681B68EE
:100520007B614FF00003BB6144E0BB694FF0010207
:1005300002FA03F3FB603B681B881A46FB6802EA79
:1005400003033B613A69FB689A422FD1BB694FEACA
:100550008303FB60FB684FF00F0202FA03F3BB60FA
:10056000BB686FEA03037A6902EA03037B61FB68F5
:10057000FA6902FA03F37A6942EA03037B613B6892
:10058000DB78282B07D1BB694FF0010202FA03F296
:100590007B685A610AE03B68DB78482B06D1BB696F
:1005A0004FF0010202FA03F27B681A61BB6903F1A2
:1005B0000103BB61BB69072BB7D97B687A691A60F5
:1005C0003B681B88FF2B56D97B685B687B614FF0CB
:1005D0000003BB6149E0BB6903F108034FF001026E
:1005E00002FA03F3FB603B681B881A46FB6802EAC9
:1005F00003033B613A69FB689A4232D1BB694FEA17
:100600008303FB60FB684FF00F0202FA03F3BB6049
:10061000BB686FEA03037A6902EA03037B61FB6844
:10062000FA6902FA03F37A6942EA03037B613B68E1
:10063000DB78282B08D1BB6903F108034FF00102D6
:1006400002FA03F27B685A613B68DB78482B08D1D9
:10065000BB6903F108034FF0010202FA03F27B6861
:100660001A61BB6903F10103BB61BB69072BB2D9F6
:100670007B687A695A6007F12407BD4680BC7047E1
:1006800080B483B000AF78607B684FF6FF721A8049
:100690007B684FF002029A707B684FF00402DA70B8
:1006A00007F10C07BD4680BC704700BF80B483B023
:1006B00000AF78600B467B807A887B681A6107F10F
:1006C0000C07BD4680BC704780B483B000AF786033
:1006D0000B467B807A887B685A6107F10C07BD4620
:1006E00080BC704780B483B000AF0346FB71094BF8
:1006F00097F907204FEA5212F97901F01F014FF0E4
:10070000010000FA01F143F8221007F10C07BD4681
:1007100080BC704700E100E080B483B000AF0346C6
:100720003960FB7197F90730002B0DDA0E49FB7920
:1007300003F00F03A3F104033A68D2B24FEA0212A6
:10074000D2B2CB181A760AE0084997F907303A680E
:10075000D2B24FEA0212D2B2CB1883F8002307F1CB
:100760000C07BD4680BC704700ED00E000E100E0F2
:1007700080B582B000AF78607A686FF07F439A42AC
:1007800002D94FF0010316E00D4B7A6822F07F4248
:1007900002F1FF325A604FF0FF304FF00F01FFF7C8
:1007A000BBFF074B4FF000029A60054B4FF007026A
:1007B0001A604FF00003184607F10807BD4680BDD8
:1007C00010E000E080B586B000AF4FF480404FF0FD
:1007D000010100F00FFA4FF004004FF0010100F0AA
:1007E00009FA07F114031846FFF74AFF4FF40073A4
:1007F000BB824FF01803FB754FF00203BB7507F186
:10080000140320481946FFF75BFE4FF48063BB8258
:100810004FF00403FB754FF00203BB7507F114039F
:1008200018481946FFF74CFE07F10403184600F07C
:10083000FDFA4FF416537B604FF000033B814FF0FD
:1008400000037B814FF00003BB814FF000033B822C
:100850004FF00C03FB8107F104030B48194600F02D
:100860000DFA09484FF0010100F002FB064840F282
:1008700025514FF0010200F01BFB07F11807BD46A0
:1008800080BD00BF000801400038014080B483B043
:1008900000AF0346FB7100BF074B1B889BB203F000
:1008A0004003002BF8D0044BFA7992B29A8007F1FA
:1008B0000C07BD4680BC70470038014080B584B04D
:1008C00000AF78604FF00003FB600AE0FB687A68D5
:1008D000D3181B78FA6802F10102FA601846FFF794
:1008E000D5FFFB687A68D3181B78002BEED107F18F
:1008F0001007BD4680BD00BF80B582B002AF294B56
:100900001A68294BA3FB02134FEA93131846FFF70B
:100910002FFFFFF7FBFB62B6FFF754FF4FF02500F8
:10092000FFF7E0FE2148FFF7C9FFFFF7E5FC00F005
:1009300005FC4FF000004FF000014FF09F024FF018
:100940007F0300F073FD4FF0000000F0C7FD4FF093
:10095000020000F013FD4FF6604300934FF00003D8
:1009600001934FF001004FF000014FF00002104BD7
:1009700001F022F84FF000004FF09F014FF0080205
:100980004FF6604300F0F8FD4FF00000FFF73CFD2C
:100990004FF4FA7000F00EF84FF00000FFF75CFD26
:1009A000F6E700BF00000020D34D6210CC8900089C
:1009B000D489000880B483B000AF78607A68064BB1
:1009C0001A6000BF044B1B68002BFBD107F10C071A
:1009D000BD4680BC704700BFBC05002080B400AF9E
:1009E000064B1B68002B05D0044B1B6803F1FF323C
:1009F000024B1A60BD4680BC704700BFBC0500209A
:100A000080B582B002AF174840F2255100F0B6FA27
:100A10000346002B23D0134800F09EFA0346DAB2B7
:100A2000114B1A701148FFF749FF0F4B1B78104804
:100A300010491A4601F0E8F949F6666300934FF051
:100A4000000301934FF002004FF000014FF010023D
:100A5000074B00F0B1FF044B4FF000021A70BD4687
:100A600080BD00BF00380140F8050020F089000873
:100A7000FC050020008A000880B487B000AF7860D1
:100A80004FF000037B614FF000033B614FF0000328
:100A9000FB604FF00003BB60514B5B6803F00C033D
:100AA0007B617B69042B07D0082B09D0002B35D143
:100AB0007B684C4A1A6035E07B684A4A1A6031E02C
:100AC000474B5B6803F470133B61454B5B6803F471
:100AD0008033FB603B694FEA934303F102033B61C0
:100AE000FB68002B06D13B693F4A02FB03F27B689F
:100AF0001A6017E03A4B5B6803F40033002B06D012
:100B00003B69394A02FB03F27B681A600AE03B69E1
:100B1000344A02FB03F27B681A6003E07B68314AC7
:100B20001A6000BF2E4B5B6803F0F0037B617B69AA
:100B30004FEA13137B612D4A7B69D3181B78DBB214
:100B4000BB607B681A68BB6822FA03F27B685A6054
:100B5000234B5B6803F4E0637B617B694FEA1323FB
:100B60007B61224A7B69D3181B78DBB2BB607B6850
:100B70005A68BB6822FA03F27B689A60184B5B687C
:100B800003F460537B617B694FEAD3237B61174A8F
:100B90007B69D3181B78DBB2BB607B685A68BB6883
:100BA00022FA03F27B68DA600D4B5B6803F4404382
:100BB0007B617B694FEA93337B610D4A7B69D31874
:100BC0001B78DBB2BB607B68DA68BB68B2FBF3F210
:100BD0007B681A6107F11C07BD4680BC704700BFE7
:100BE0000010024000127A0000093D002800002099
:100BF0003800002080B483B000AF78600B46FB70F3
:100C0000FB78002B07D00B4B0A4A91697A6841EABE
:100C100002029A6108E0074B064A91697A686FEA16
:100C2000020201EA02029A6107F10C07BD4680BC8C
:100C3000704700BF0010024080B483B000AF7860FE
:100C40000B46FB70FB78002B07D00B4B0A4AD1698F
:100C50007A6841EA0202DA6108E0074B064AD16984
:100C60007A686FEA020201EA0202DA6107F10C0710
:100C7000BD4680BC704700BF0010024080B58CB0FC
:100C800000AF786039604FF00003FB624FF0000363
:100C9000BB624FF000037B624FF000033B624FF0FA
:100CA0000003FB617B68FB617B681B8A9BB2FB6274
:100CB000FA6A4CF6FF7302EA0303FB623B68DB88C7
:100CC000FA6A42EA0303FB62FB6A9AB27B681A8201
:100CD0007B689B899BB2FB62FA6A4EF6F31302EAC9
:100CE0000303FB623B689A883B681B8942EA030363
:100CF0009AB23B685B8942EA03039BB2FA6A42EA12
:100D00000303FB62FB6A9AB27B689A817B689B8AC9
:100D10009BB2FB62FA6A4FF6FF4302EA0303FB62EF
:100D20003B689B89FA6A42EA0303FB62FB6A9AB258
:100D30007B689A8207F108031846FFF79DFEFA695F
:100D4000384B9A4202D17B69BB6201E03B69BB62CE
:100D50007B689B899BB29BB21BB2002B0FDABA6AED
:100D600013464FEA83039B184FEA83029A183B68A5
:100D70001B684FEA4303B2FBF3F37B620EE0BA6AEF
:100D800013464FEA83039B184FEA83029A183B6885
:100D90001B684FEA8303B2FBF3F37B627A6A224B50
:100DA000A3FB02134FEA53134FEA0313FB62FB6AE0
:100DB0004FEA13134FF0640202FB03F37A6AD31A6B
:100DC0003B627B689B899BB29BB21BB2002B10DA03
:100DD0003B6A4FEAC30303F13202134BA3FB021336
:100DE0004FEA531303F00703FA6A42EA0303FB6274
:100DF0000FE03B6A4FEA031303F132020A4BA3FBF5
:100E000002134FEA531303F00F03FA6A42EA030393
:100E1000FB62FB6A9AB27B681A8107F13007BD4614
:100E200080BD00BF003801401F85EB5180B483B006
:100E300000AF78607B684FF416521A607B684FF001
:100E400000029A807B684FF00002DA807B684FF0E6
:100E500000021A817B684FF00C025A817B684FF0C8
:100E600000029A8107F10C07BD4680BC704700BFA5
:100E700080B483B000AF78600B46FB70FB78002B2A
:100E800008D07B689B899BB243F400539AB27B687D
:100E90009A8107E07B689B899BB223F400539AB246
:100EA0007B689A8107F10C07BD4680BC704700BF84
:100EB00080B487B000AF786013460A467A807B70B2
:100EC0004FF000033B614FF00003FB604FF0000365
:100ED000BB604FF000037B617B687B617B88DBB28A
:100EE0004FEA5313DBB23B617B8803F01F03FB60C7
:100EF000FB684FF0010202FA03F3BB603B69012B70
:100F000004D17B6903F10C037B610BE03B69022B8D
:100F100004D17B6903F110037B6103E07B6903F17A
:100F200014037B617B78002B07D07B697A69116899
:100F3000BA6841EA02021A6008E07B697A691168BE
:100F4000BA686FEA020201EA02021A6007F11C079E
:100F5000BD4680BC704700BF80B483B000AF7860EE
:100F60007B689B889BB24FEAC3534FEAD3539BB233
:100F7000184607F10C07BD4680BC704780B487B0A7
:100F800000AF78600B467B804FF00003FB604FF0B2
:100F900000037B614FF00003BB604FF00003FB7464
:100FA0007B88DBB24FEA5313DBB2BB607B8803F074
:100FB0001F037B617B694FF0010202FA03F37B613F
:100FC000BB68012B07D17B689B899BB27A6902EAD7
:100FD00003037B6111E0BB68022B07D17B681B8A8E
:100FE0009BB27A6902EA03037B6106E07B689B8A15
:100FF0009BB27A6902EA03037B617B884FEA132381
:101000009BB2FB60FB684FF0010202FA03F3FB6046
:101010007B681B889BB2FA6802EA0303FB607B696A
:10102000002B06D0FB68002B03D04FF00103FB74AC
:1010300002E04FF00003FB74FB7C184607F11C072D
:10104000BD4680BC704700BF80B485B000AF7860FB
:101050000B4B1B68002B02D10A4A094B1A60084B44
:101060001B68FB60064B1A687B68D218044B1A6039
:10107000FB68184607F11407BD4680BC704700BFE7
:10108000C00500201406002080B582B000AF0346E2
:10109000FB7100BF08484FF0020100F0CBFD034692
:1010A000002BF7D0FB799BB20348194600F092FD64
:1010B00007F10807BD4680BD0038004080B582B00A
:1010C00000AF0346FB710B484FF40061FFF7FCFAD9
:1010D000FB791846FFF7D8FF00BF07484FF08001A3
:1010E00000F0A8FD0346012BF7D007F10807BD4625
:1010F00080BD00BF000801400038004080B582B0CC
:1011000000AF0346FB710B484FF40061FFF7CEFAC6
:10111000FB791846FFF7B8FF00BF07484FF0800182
:1011200000F088FD0346012BF7D007F10807BD4604
:1011300080BD00BF000801400038004080B586B087
:1011400000AF4FF009004FF00101FFF753FD4FF4DE
:1011500080404FF00101FFF76FFD4FF48273FB8079
:101160004FF000033B824FF44043BB804FF000033D
:101170007B814FF00003BB814FF00703BB824FF030
:1011800000033B814FF000037B824FF40073FB812F
:1011900007F104037648194600F0B0FC74484FF498
:1011A000807100F025FD72484FF0010100F0F2FC63
:1011B0004FF01003FB704FF00303BB704FF420435C
:1011C0003B804FF01803FB703B466A481946FFF717
:1011D00077F94FF01003FB704FF004004FF001015E
:1011E000FFF708FD4FF480733B803B466248194689
:1011F000FFF766F94FF480533B803B465E48194643
:10120000FFF75EF94FF400633B803B465A481946AE
:10121000FFF756F958484FF48071FFF747FA5648E0
:101220004FF48051FFF742FA4FF00500FFF7C2FB81
:1012300051484FF48051FFF747FA4FF00500FFF790
:10124000B9FB4D484FF48051FFF730FA4A484FF44C
:101250008071FFF72BFA4FF00500FFF7ABFB464814
:101260004FF48071FFF730FA4FF01100FFF726FFBF
:101270004FF01400FFF79EFB4FF0B100FFF71EFF89
:101280003D484FF40061FFF711FA4FF00500FFF7FA
:10129000FBFE4FF03C00FFF7F7FE4FF03C00FFF77E
:1012A000F3FE4FF0B200FFF709FF33484FF400613F
:1012B000FFF7FCF94FF00500FFF7E6FE4FF03C00AA
:1012C000FFF7E2FE4FF03C00FFF7DEFE4FF0B30009
:1012D000FFF7F4FE28484FF40061FFF7E7F94FF0FD
:1012E0000500FFF7D1FE4FF03C00FFF7CDFE4FF0B9
:1012F0003C00FFF7C9FE4FF00500FFF7C5FE4FF0B9
:101300003C00FFF7C1FE4FF03C00FFF7BDFE4FF081
:10131000B400FFF7D3FE4FF00300FFF7EFFE4FF0EE
:101320003A00FFF7CBFE4FF00500FFF7E7FE4FF066
:101330002000FFF7C3FE4FF01300FFF7BFFE4FF092
:101340002600FFF7BBFE4FF00100FFF7D7FE4FF07E
:101350002900FFF7B3FE08484FF48071FFF7A6F9A4
:101360004FF0000000F00AF807F11807BD4680BDF5
:1013700000380040000C01400008014080B582B0F8
:1013800000AF0346FB7126484FF48071FFF79CF9CC
:101390004FF03600FFF792FEFB79022B10D0032BA3
:1013A0001BD0012B26D11F4B4FF0A0021A801E4BE1
:1013B0004FF080021A804FF0A000FFF79FFE26E05A
:1013C000184B4FF0A0021A80174B4FF080021A8082
:1013D0004FF06000FFF792FE19E0124B4FF08002D1
:1013E0001A80114B4FF0A0021A804FF0C000FFF797
:1013F00085FE0CE00B4B4FF080021A800A4B4FF039
:10140000A0021A804FF00000FFF778FE00BF0448EA
:101410004FF48071FFF74AF907F10807BD4680BD18
:10142000000801400C0600200E06002080B582B0A6
:1014300000AFF880B9807A803B804FF02A00FFF738
:101440003DFE25484FF40061FFF730F9FB884FEA75
:1014500013239BB2DBB21846FFF716FEFB88DBB204
:101460001846FFF711FE7B884FEA13239BB2DBB2CD
:101470001846FFF709FE7B88DBB21846FFF704FE2B
:101480004FF02B00FFF71AFE13484FF40061FFF7EF
:101490000DF9BB884FEA13239BB2DBB21846FFF766
:1014A000F3FDBB88DBB21846FFF7EEFD3B884FEA41
:1014B00013239BB2DBB21846FFF7E6FD3B88DBB295
:1014C0001846FFF7E1FD4FF02C00FFF7F7FD07F19D
:1014D0000807BD4680BD00BF0008014080B584B04C
:1014E00000AF0346FB80FB884FEA13239BB27B735C
:1014F000FB883B731D484FF48071FFF7E5F81C4BE8
:101500001B8803F1FF339AB21A4B1B8803F1FF3398
:101510009BB24FF000004FF00001FFF787FF134828
:101520004FF40061FFF7C2F84FF00003FB810BE0BE
:101530007B7B1846FFF7A8FD3B7B1846FFF7A4FD11
:10154000FB8903F10103FB81FA89094B1B880949D7
:10155000098801FB03F39A42EADB04484FF48071E7
:10156000FFF7A4F807F11007BD4680BD0008014051
:101570000C0600200E06002080B584B000AFF88075
:10158000B9807A803B803B884FEA13239BB27B7300
:101590003B883B7317484FF48071FFF795F8F88844
:1015A0007988BA887B88FFF741FF12484FF40061C1
:1015B000FFF77CF84FF00003FB810BE07B7B1846C4
:1015C000FFF762FD3B7B1846FFF75EFDFB8903F1E9
:1015D0000103FB81FA89B988FB88CB1A9A42EDDDB9
:1015E00004484FF48071FFF761F807F11007BD461A
:1015F00080BD00BF0008014080B584B000AFF88016
:10160000B9807A803B807A88FB88D31A03F1010382
:101610009BB23988BA888A1A02F1010292B202FB9F
:1016200003F3BB813B8B4FEA13239BB2FB723B8BD3
:10163000BB7216484FF48071FFF746F8F888B988F6
:101640007A883B88FFF7F2FE10484FF40061FFF7FD
:101650002DF84FF00003FB810BE0FB7A1846FFF7F3
:1016600013FDBB7A1846FFF70FFDFB8903F1010359
:10167000FB81FA89BB899A42EFD304484FF4807109
:10168000FFF714F807F11007BD4680BD00080140C0
:10169000B0B588B002AFF871B9807A807B703B8DAD
:1016A0004FEA13239BB2FB743B8DBB74BB8D4FEA97
:1016B00013239BB27B74BB8D3B747B781F2B16D995
:1016C0007B785BB2002B12DB7A7813464FEA8303F8
:1016D0009B18A3F1A0031A46724BD31807F1080216
:1016E000104619464FF0050200F0C4FA1EE07B7860
:1016F0009F2B12D97A7813464FEA83039B18A3F5E0
:10170000A0731A46674BD31807F108021046194612
:101710004FF0050200F0AEFA08E0634B07F1080253
:10172000104619464FF0050200F0A4FA5F484FF446
:101730008071FEF7C9FFFB79012B62D1BB8803F1F1
:1017400005039AB27B8803F107039BB2B8887988B6
:10175000FFF76CFE55484FF40061FEF7A7FF4FF00E
:101760000003BB8236E04FF00003FB8223E0FB8ADC
:1017700007F11802D31813F8103C1A46BB8A42FA34
:1017800003F303F00103DBB2002B08D0FB7C184607
:10179000FFF77AFCBB7C1846FFF776FC07E07B7C02
:1017A0001846FFF771FC3B7C1846FFF76DFCFB8A7F
:1017B00003F10103FB82FB8A042BD8D97B7C1846FA
:1017C000FFF762FC3B7C1846FFF75EFCBB8A03F127
:1017D0000103BB82BB8A062BC5D94FF00003FB82F5
:1017E0000BE07B7C1846FFF74FFC3B7C1846FFF76D
:1017F0004BFCFB8A03F10103FB82FB8A052BF0D92A
:10180000CEE02A484FF40061FEF750FF4FF000038E
:10181000BB8293E04FF00003FB8252E0FB799BB266
:10182000FA8A02FB03F39AB2BB88D31898B2FB7909
:101830009BB2BA8A02FB03F39AB27B88D31899B29F
:10184000FB799BB2FA8A02FB03F39AB2BB88D318E6
:101850009AB2FB799BB2D3189BB203F1FF339AB2D1
:10186000FB799BB2BC8A04FB03F39CB27B88E31830
:101870009CB2FB799BB2E3189BB203F1FF339CB29D
:10188000FB8A07F1180C634413F8103C1D46BB8A11
:1018900045FA03F303F00103DBB2002B08D03B8DC4
:1018A00007E000BF048A0008A48A0008000801407D
:1018B000BB8D00932346FFF79FFEFB8A03F10103D4
:1018C000FB82FB8A042BA9D9FB799BB2FA8A02FB23
:1018D00003F39AB2BB88D31898B2FB799BB2BA8A49
:1018E00002FB03F39AB27B88D31899B2FB799BB2BF
:1018F000FA8A02FB03F39AB2BB88D3189AB2FB7937
:101900009BB2D3189BB203F1FF339AB2FB799BB21F
:10191000BC8A04FB03F39CB27B88E3189CB2FB797E
:101920009BB2E3189BB203F1FF339BB2BC8D0094D2
:10193000FFF762FEBB8A03F10103BB82BB8A062B61
:101940007FF668AFFB799BB2BA8A02FB03F39AB2C7
:101950007B88D31899B2FB799BB2FA8A02FB03F316
:101960009AB2BB88D3189AB2FB799BB2D3189BB2B8
:1019700003F1FF339AB2FB799BB2B88A00FB03F301
:1019800098B27B88C31898B2FB799BB2C3189BB2FC
:1019900003F1FF339BB2B888BC8D0094FFF72CFE97
:1019A00004484FF48071FEF781FE07F11807BD4629
:1019B000B0BD00BF0008014090B585B002AF3B60EC
:1019C0000346FB710B46BB7113467B71FB79012B00
:1019D00040F0868031E0BB7999B27B799AB23B685E
:1019E0001B78386800F101003860F8793C8B00946E
:1019F000BC8B0194FFF74CFEBA793E4B1B88A3F1D8
:101A000006039A4204DABB7903F10603BB7114E0C2
:101A10007A79394B1B88A3F108039A4207DA4FF011
:101A20000003BB717B7903F108037B7105E04FF084
:101A30000003BB714FF000037B713B681B78002BE8
:101A4000C9D152E0BB7999B27B799AB23B681B78D5
:101A5000386800F101003860F8793C8B0094BC8B49
:101A60000194FFF715FEB979224B1B881846FA79C5
:101A700013464FEA83739B1A4FEA83039B1AC218DB
:101A8000FB79D31899420BDAFB791A464FEA4202E6
:101A9000D3184FEA4303DAB2BB79D318BB7120E005
:101AA0007A79154B1B881946FB7918464FEAC30310
:101AB000C31AC918FB79CB189A420ADA4FF000030F
:101AC000BB71FB794FEAC303DAB27B79D3187B7120
:101AD00007E04FF00003BB714FF000037B7100E0A3
:101AE00000BF3B681B78002BACD107F10C07BD464B
:101AF00090BD00BF0C0600200E06002080B485B00B
:101B000000AF786039604FF00003FB817B681B8871
:101B1000FB81FB8903F44153FB813B681A883B68D6
:101B20005B8842EA03039AB23B689B8842EA03035C
:101B30009AB23B68DB8842EA03039AB23B681B898E
:101B400042EA03039AB23B685B8942EA03039AB212
:101B50003B689B8942EA03039AB23B68DB8942EA0D
:101B600003039AB2FB8942EA0303FB817B68FA898B
:101B70001A807B689B8B9BB223F400639AB27B68CC
:101B80009A833B681A8A7B681A8207F11407BD465C
:101B900080BC704780B483B000AF78600B46FB70A8
:101BA000FB78002B08D07B681B889BB243F0400376
:101BB0009AB27B681A8007E07B681B889BB223F08F
:101BC00040039AB27B681A8007F10C07BD4680BCBF
:101BD000704700BF80B483B000AF78600B467B8055
:101BE0007B687A889A8107F10C07BD4680BC7047F4
:101BF00080B483B000AF78600B467B807A884FF664
:101C0000FF639A4208D07B681B889BB243F48073C1
:101C10009AB27B681A8007E07B681B889BB223F42A
:101C200080739AB27B681A8007F10C07BD4680BCAE
:101C3000704700BF80B485B000AF78600B467B80F2
:101C40004FF00003FB737B681B899AB27B8802EA22
:101C500003039BB2002B03D04FF00103FB7302E0A0
:101C60004FF00003FB73FB7B184607F11407BD46DA
:101C700080BC7047032A2DE9F00109D82AB100235E
:101C8000CC5CC45401339342FAD1BDE8F0017047F3
:101C90000B468218014603E02478013301F8014B1A
:101CA00011F0030F1C46F7D113F003055DD06E420F
:101CB000C5F1040CED009B594FEACC0C08E004344C
:101CC000A7593B4607FA0CF748EA070741F8047B97
:101CD000571A23FA05F8032FF1DC03E014F8013B4F
:101CE00001F8013B8A42F9D8CFE753F8404C41F85C
:101CF000404C53F83C4C41F83C4C53F8384C41F8BC
:101D0000384C53F8344C41F8344C53F8304C41F8CB
:101D1000304C53F82C4C41F82C4C53F8284C41F8DB
:101D2000284C53F8244C41F8244C53F8204C41F8EB
:101D3000204C53F81C4C41F81C4C53F8184C41F8FB
:101D4000184C53F8144C41F8144C53F8104C41F80B
:101D5000104C53F80C4C41F80C4C53F8084C41F81B
:101D6000084C53F8044C41F8044C561A1D460C46D6
:101D7000403340313F2EB8DC2B460FE053F8101CA7
:101D800044F8101C53F80C1C44F80C1C53F8081CA5
:101D900044F8081C53F8041C44F8041C161B214684
:101DA0001D46103410330F2EE8DC2B4602E0246869
:101DB00041F8044B551A1C46032D03F10403F6DCCD
:101DC00090E700BF0CB44FF4027370B59CB020AC28
:101DD0000E46ADF8103001A954F8042B4FF0FF3334
:101DE000ADF812306FF00045234601960596039535
:101DF00006951B9400F030F8019B00221A701CB06D
:101E0000BDE8704002B070470EB440F23C03F0B53C
:101E10009CB021ACC2F20003064601A954F8042B81
:101E20006FF0004518684FF4027723460196059637
:101E30004FF0FF36ADF81070ADF8126003950695BF
:101E40001B9400F009F8019B00221A701CB0BDE839
:101E5000F04003B0704700BF2DE9F04FC5B0144605
:101E600012930C91119002F04BFB0068199003F053
:101E700047FC1C900C98838913F0800F03D00369F2
:101E8000002B01F06F810DF17C0A002356460DF105
:101E9000F7010E9309941A931B9317931D930F93B5
:101EA0000791CDF8E4A03B933A93099A1378B3F1E4
:101EB000250218BF0122002B0CBF002302F00103F2
:101EC000002B00F0BD80099B5A1C174601323B785D
:101ED000191E18BF0121252B0CBF002301F001039F
:101EE000002BF2D1099CB7EB040810D03A9C09985A
:101EF00001343B9D072CC6F80480306045443A9479
:101F00003B9500F3818008360F9941440F913B784F
:101F1000002B00F081807C1C002200230D928DF8A4
:101F20000F31202509942B217B784FF0FF37089241
:101F300022460132A3F12000582800F21C83DFE87A
:101F400010F02D031A031A0336031A031A031A0397
:101F50001A031A031A03C70381001A035D008500E0
:101F60001A039F00A500A500A500A500A500A500D7
:101F7000A500A500A5001A031A031A031A031A03E1
:101F80001A031A031A031A031A03B70041021A03A9
:101F900041021A031A031A031A037F021A031A03CF
:101FA00085021A031A031A031A031A03A3021A0357
:101FB0001A03B2021A031A031A031A031A031A03A2
:101FC0001A031A031A031A0354033C034102410281
:101FD00041024E033C031A031A030B031A039A032C
:101FE00068037E03DD021A03E3021A03AB031A033C
:101FF0001A03D2030D9B12905B420D93089C44F090
:1020000004040894137894E7119839AA0C9903F002
:10201000A7FB40B9564677E73B9B23B1119839AAF5
:102020000C9903F09DFB0C990F9A8B8913F0400FCC
:1020300018BF4FF0FF320F920F9845B0BDE8F08FF8
:10204000099F64E78DF80F11137872E712F8013BCE
:102050002A2B01F0FC81A3F13000092801F2AC81A8
:102060001446002714F8013B07EB870700EB4707EE
:10207000A3F1300009282246F4D947EAE77759E767
:10208000089B43F080030893137852E7144600201E
:10209000A3F1300814F8013B00EB8000A3F1300CF1
:1020A0002246BCF1090F08EB4000F1D90D9041E741
:1020B0000992089A169342F010020892089B13F0B6
:1020C000200F00F08182129CE31D23F0070303F12F
:1020D00008001290D3E90045002C75F10002C0F20F
:1020E000CD8554EA05034FF001030CBF0022012205
:1020F000002FA2BF089921F080010891002F18BF7E
:1021000042F00102002A00F0AC83012B00F0FE84B3
:10211000022B00F0DE840DF1BC0B0BF12703EA0863
:102120004FEAD40848EA457804F00704114604F160
:1021300030020D4644469C461A70013B54EA0500A5
:10214000EDD10899CDF84CC011F0010F40F0888511
:102150000BF1280BCCEB0B0210929DF80F21002005
:10216000109C1497BC42B8BF3C4618900A9412B118
:102170000A9801300A90089911F0020B02D00A9BCC
:1021800002330A93089C14F08404159440F0CD8225
:102190000D980A99471A002F40F3C782102F41F378
:1021A00065803B9D49F204683A9CC0F600082946C8
:1021B0004FF0100922460C9D4446DDF8448002E0B1
:1021C000103F102F1BDD01323460C6F8049010312F
:1021D0000836072A3A9206F108033B91F0DD4046A3
:1021E000294639AA564603F0BBFA0AF1080300282B
:1021F0007FF419AF103F3B99102F3A9AE3DCA046C9
:102200000D4614460134C6F80080072C77603D4423
:102210003A943B9500F37E829DF80F211E466AB1E9
:102220003A9C43AB0333336001340123072C7360C2
:102230001D443A943B9500F3E9830836BBF1000F47
:102240000CD03A9C43AB3360022301347360072CFB
:102250001D443A943B9500F3CE830836159A802AA4
:1022600000F01083149910980F1A002F40F35B832D
:10227000102F40F3EB853A9C2A46DFF8988A4FF0FE
:10228000100B23460C9D4446DDF8448002E0103FCD
:10229000102F1BDD01333460C6F804B0103208364D
:1022A000072B3A9306F108093B92F0DD4046294698
:1022B00039AA0AF1080903F053FA564600287FF4B8
:1022C000B2AE103F3B9A102F3A9BE3DCA046154676
:1022D0001C460134C6F80080072C77603D443A94D0
:1022E0003B9500F37D83089A12F4807F40F04E8284
:1022F0003A9C109B01341398072C1D44C9F80430F4
:10230000C9F800003B953A9400F3358209F10809B9
:10231000089C14F0040F46D00D980A99461A002E16
:1023200041DD102E40F3DA873A9C49F20468C0F68A
:10233000000810272346DDF830B04446DDF844801D
:1023400002E0103E102E19DD01331035072BC9F8BD
:102350000040C9F8047009F108093A933B95F0DD93
:102360004046594639AAD14603F0FAF900287FF4CD
:102370005AAE103E3B9D102E3A9BE5DCA0461C4613
:102380000134C9F80080072CC9F8046035443A9438
:102390003B9508DD119839AA0C9903F0E1F9002862
:1023A0007FF441AE3B9D0F9A0A9C0D9B9C42ACBFB3
:1023B0001219D2180F92002D40F0038300205646C8
:1023C0003A9072E508991D46099211F0080F16938C
:1023D00000F08784129AD31D23F0070303F1080449
:1023E000129418681A905B681B931A981B9903F053
:1023F0003DF8012840F050841A98002200231B99D0
:1024000005F01AF9002840F01C879DF80F210320E1
:1024100049F2286349F224610A901698C0F6000137
:10242000C0F6000300244728D8BF0B460899139331
:10243000032321F08001149408911093189496E6D8
:10244000089C44F008040894137872E508990992EE
:1024500041F010010891089A169312F0200300F041
:10246000DF80129BDA1D002322F0070202F108042C
:102470001294D2E9004554EA05000CBF0022012263
:1024800000208DF80F0133E6089C099244F01004F7
:1024900008940898169310F0200F00F00481129908
:1024A0000123CA1DE0E7099249F23461089AC0F697
:1024B0000001169312F0200F179100F02081129C5A
:1024C000E31D23F0070303F108001290D3E9004550
:1024D00054EA0502089B0CBF00220122134200F0BF
:1024E000698316983023089901228DF80C31022354
:1024F00041F002018DF80D010891C1E7089840F004
:1025000020000890137814E509920021129A16937E
:102510008DF80F11141D13681393002B00F0F08633
:10252000002FC0F29386139800213A4602F0C6FAB3
:10253000002800F03687139BC01A1090B84240F371
:10254000F484002027EAE77114900A919DF80F2186
:102550001294109718900AE613786C2B0BBF089B07
:10256000089C43F0200344F010040ABF0893089429
:1025700012F8013FDDE409921693002B3FF44CADB5
:10258000002201218DF8BC302FAC00230A9110915C
:102590008DF80F31149218921394ECE59DF80F31D9
:1025A000002B40F09B838DF80F511378C1E40898FD
:1025B00040F0010008901378BBE41693089B099241
:1025C00013F0200F7FF47FAD089911F0100F00F089
:1025D000A383129A146804321292E5177CE50898D6
:1025E00040F0400008901378A3E416930121129B59
:1025F0000020099200221C1D0A911B681294109160
:102600002FA98DF80F011492189213918DF8BC30F8
:10261000B1E50992089A169312F020037FF421AFD6
:10262000089911F0100200F09183129C2268043482
:10263000002512941446003A18BF012220E7129B8D
:102640007821089C0025099249F248601A6844F0F4
:10265000020404330894129314463023003A8DF890
:102660000C3118BF0122C0F600008DF80D11179033
:102670000223169104E70992089A12F0200F00F045
:102680005883129B0F9C129819682246E317043056
:102690001290C1E9002308E40898099210F0200F75
:1026A00016937FF4FCAE089911F0100F40F0918260
:1026B000089810F0400F00F08C8212990123002539
:1026C0000A88043112911446003A18BF0122D7E655
:1026D000129B129C1B68201D002B0D93FFF68AACE9
:1026E0001378129025E4099249F24860089AC0F6DE
:1026F0000000169312F0200F17907FF4E0AE0899B7
:1027000011F0100F00F0FA82129A002514680432BA
:102710001292DDE6119839AA0C9903F021F80028ED
:102720007FF481AC9DF80F2156463B9D77E5089AD2
:1027300012F0010F40F0FD803A9C0135139A0123FD
:102740000134C9F80430072CC9F800203B953A94AD
:1027500000F31F8509F1080B0BF108091D9B0134DB
:10276000072C1D44CBF804303EABCBF800303B9532
:102770003A947FF7CDAD119839AA0C9902F0F0FF89
:1027800000287FF450ACD1463B9DC1E516996529E0
:1027900040F3CB801A98002200231B9904F042FFDB
:1027A000002800F03E813A9C49F26463C0F60003C1
:1027B000C9F8003001340123072CC9F804301D4446
:1027C0003A943B95D8BF09F1080900F34683429B30
:1027D0000E9A934204DB089B13F0010F3FF498AD6F
:1027E0003A9C1C9801341999072C0544C9F8040037
:1027F000D8BF09F10803C9F800103B953A9400F3DB
:10280000BC830E9A561E002E40F31D83102E40F3FB
:10281000E8853A9C1027DFF8FC842246DDF830B0CA
:102820004446DDF8448003E0103E102E40F3C4819E
:1028300001321C605F6010350833072A3A9203F1B9
:1028400008093B95F0DD4046594639AA0AF10809C6
:1028500002F086FF534600287FF4E5AB3B9D3A9A91
:10286000E2E7002B40F0B780089C14F0010F00F065
:102870002B81012030230DF1E30110908DF8E3301E
:1028800013916AE40D9B0A9C1F1B002F7FF7EAAC93
:10289000102F40F369853A9C3346DFF878844FF077
:1028A00010092246DDF830B04446DDF8448002E0ED
:1028B000103F102F1BDD01321C60C3F8049010354F
:1028C0000833072A3A9203F108063B95F0DD4046AB
:1028D000594639AA0AF1080602F042FF5346002879
:1028E0007FF4A1AB103F3B9D102F3A9AE3DCA0464A
:1028F00014460134C3F80080072C5F603D443A94CD
:102900003B957FF7AFAC119839AA0C9902F028FFDC
:1029100000287FF488AB1499564610983B9D0F1AF7
:10292000002F3FF7A5ACB146DDE40E9901297FF7F2
:10293000FEAE3A9C0135139B0134C9F800300123E7
:10294000072CC9F80430D8BF09F108093B953A941F
:10295000D8BF09F1080600F3418101341C99199888
:10296000072C0D44D8BF06F1080BC9F80410C9F8AC
:1029700000003A943B9500F33F811A98002200230F
:102980001B9904F04FFE002840F0CE800E9B0134CE
:1029900013985A1E7260431C072C336015443A94F6
:1029A0003B957FF7D9AE119839AA0C9902F0D8FE61
:1029B00000287FF438AB0AF10809D3463B9D3A9CC6
:1029C000CCE6119839AA0C9902F0CAFE00283FF40F
:1029D000F5ACFFF728BB109239AA1392FFF7BDBBE5
:1029E000119839AA0C9902F0BBFE00287FF41BABAA
:1029F000D1463B9D77E4119839AA0C9902F0B0FEBC
:102A000000287FF410AB3B9D564627E4119839AA65
:102A10000C9902F0A5FE00287FF405AB3B9D5646BD
:102A20000CE4429E002E40F323820E9E189C1398C5
:102A3000A642A8BF26460E99002E00EB010B0EDD24
:102A40003A9CAD19C9F800000134C9F80460072C9C
:102A50003B953A94D8BF09F1080900F31184189AFC
:102A600026EAE676961B002E40F3E983102E40F30B
:102A7000E1843A9C2946DFF89C82102722460C9D6F
:102A80004446DDF8448003E0103E102E40F3708190
:102A900001321031072AC9F80040C9F8047009F161
:102AA00008093A9209F108033B91EDDD40462946B9
:102AB00039AAD14602F054FE0AF1080300287FF437
:102AC000B2AA3B993A9ADFE7109339AB1393FFF719
:102AD00044BB0DF1BC0B17990BF1270004F00F025A
:102AE000230943EA05734FEA151C8A5C1C4603461A
:102AF000654601381A7054EA0502EFD10BF1280B34
:102B00001393C3EB0B031093FFF727BB0A2C75F14C
:102B100000017FD2303401220DF1E30310928DF8D1
:102B2000E3401393FFF719BB0E994F1E002FDCBF34
:102B300006F10809B3467FF711AE102FD8BFDFF8B2
:102B4000D4812CDDDFF8CC8123462A464FF01009D2
:102B500044460C9DDDF8448002E0103F102F1BDD41
:102B600001333460C6F8049010320836072B3A93CC
:102B700006F1080B3B92F0DD4046294639AA0AF1DE
:102B8000080B02F0EDFD564600287FF44CAA103FDA
:102B90003B9A102F3A9BE3DCA04615461C460134B5
:102BA000C6F80080072C77603D443A943B957FF748
:102BB000D3ADF8E6022363E4A04614460134C3F81B
:102BC0000080072C5E6035443A943B957FF7A0ABBC
:102BD000D1E5129B129C1A68012328E5119839AAA5
:102BE0000C9902F0BDFD00287FF41DAA3B9D0AF15F
:102BF00008063A9CD146B0E6119839AA0C9902F021
:102C0000AFFD00287FF40FAA3B9D0AF1080B3A9C08
:102C10005646B2E60DF1BC0BB1460BF12708204633
:102C200029460A22002304F057FD4646204629463D
:102C3000002308F1FF3802F130040A22347004F056
:102C40004BFD04460D4654EA0500E8D113960BF1FE
:102C5000280B13994E46C1EB0B011091FFF77DBA7B
:102C6000302A00F0338313930BF1280B1398C3EB36
:102C70000B04302310940370FFF76FBA644265EBC6
:102C800045052D2354EA05008DF80F310CBF0022B5
:102C900001220123FFF72CBA1A981B9902F0E6FBD8
:102CA000002840F07581149049F2306349F22C629B
:102CB0001698C0F60002C0F600034728D8BF134696
:102CC0001393149B032408990A9421F080019DF822
:102CD0000F21089110941893FFF749BA1378FFF762
:102CE00028B91299CB1D23F0070303F108021292B1
:102CF0001C681A945B681B93FFF777BB089B13F063
:102D0000400F00F0268112980025048804301290AC
:102D1000FFF7DEBB14960008089B13F0400F00F08D
:102D200011811298B0F9004004301290E517FFF7B6
:102D3000D3B9089911F0100F00F01281129A0F9C6C
:102D40001368043212921C60FFF7AFB8089810F0B5
:102D5000400300F0FC81129B0025129C198804346A
:102D6000134612940A1E0C4618BF0122FFF788BBB7
:102D7000A0460D4614460134C9F80080072CC9F856
:102D8000046035443A943B9500F3AF82429A0E9C1E
:102D9000A2424ADB089810F0010F46D1139C189804
:102DA00021180E9CC1EB0B07A21ABA42B8BF1746F6
:102DB000002F0ADD3A9CED19196001345F60072C81
:102DC0003B953A9400F37482083327EAE776961B22
:102DD000002E38DD102E40F304833A9C1027DFF8D4
:102DE000B4862246DDF830B04446DDF8448003E086
:102DF000103E102E7FF7E0AE01321C605F60103590
:102E00000833072A3A9203F108093B95F0DD404662
:102E1000594639AA0AF1080902F0A2FC53460028D3
:102E20007FF401A93B9D3A9AE2E73A9C1C99013450
:102E30001998072C0D44596018603B953A9400F39B
:102E40002B820833AAE79946FFF762BA06F1080910
:102E50003A9CDFF84086FFF73CBA119839AA0C99E2
:102E600002F07EFC00287FF4DEA83B9DD146AEE454
:102E70003A9C49F26463C0F60003C9F8003001349B
:102E80000123072CC9F804301D443A943B95D8BF60
:102E900009F1080900F38C8136B90E9B23B9089C0F
:102EA00014F0010F3FF434AA3A9C1C98013419998C
:102EB000072C0544C9F80400C9F80010D8BF09F16F
:102EC00008093B953A9400F3AB817642002E40F31B
:102ED0009881102ED8BFDFF8BC8540F37A81DFF8E7
:102EE000B48523461027DDF830B04446DDF8448031
:102EF00003E0103E102E40F36A8101331035072B9A
:102F0000C9F80040C9F8047009F108093A933B95E3
:102F1000EFDD4046594639AAD14602F021FC00288F
:102F20007FF481A83B9D3A9BE3E7109B002212941B
:102F30000024149223EAE3739DF80F210A93189456
:102F4000FFF715B912990C6804311291E517FFF7D4
:102F5000C3B8129900250C6804311291FFF7B8BA72
:102F6000089810F0400F00F00C8112990F9A0B682E
:102F7000043112911A80FEF798BF119839AA0C9962
:102F800002F0EEFB00287FF44EA83B9D534638E448
:102F9000B7F1FF3F00F05181169CA4F1670EDEF1FE
:102FA000000343EB0E03472C08BF43F0010313B1AA
:102FB000002F08BF01271B9B0898002B40F480704E
:102FC0000890C0F20182DDF86C9000221492169BEA
:102FD000A3F16604D4F1000B4BEB040B462B08BFA6
:102FE0004BF0010BBBF1000F40F0BB81452B02D031
:102FF000652B40F0E68107F1010802231A9C42A9E3
:10300000CDF82C9000930A94DDE90A2311980291DF
:1030100041A9CDF80480039140A9049100F0D2FAAF
:10302000169AB2F1670318BF0123472A0CBF002389
:1030300003F00103139023B9089B13F0010F00F074
:10304000E181139800EB0804BBF1000F05D0037871
:10305000302B00F0E281429BE4181A9800220023F2
:10306000494604F0DFFA002800F0858123464094A9
:103070001699139CA1F167004242C4EB030342EB93
:1030800000020E93472914BF134642F00103002BA0
:1030900000F04881429B13F1030F109302DB9F4223
:1030A00080F27481169802381690013B169A002B14
:1030B00042938DF8F820C0F2C3812B228DF8F920BD
:1030C000092B40F3868146F267640DF1F600C6F2E3
:1030D000666484FB0321DA170546C2EBA10202EB0A
:1030E0008201A3EB410113463031092A00F801198E
:1030F000EFDC30336A1E05F8013C0DF1F7039A420C
:1031000080F0C4810DF1FA0312F8011B03F8011BD2
:103110001946079C9442F7D83EAB0E98CB1A0E99ED
:1031200018181D930129109040F36E81109B002404
:10313000189401331093149B002B40F00781109CCE
:103140009DF80F2124EAE4740A94FFF710B812984E
:1031500000250268043012901446003A18BF01227C
:10316000FFF78EB94021119801F0EAF90C99086037
:103170000861002800F082810C9840234361FEF72B
:1031800082BE129C0F982368043412941860FEF7D4
:103190008CBE119839AA0C9902F0E2FA00287EF44C
:1031A00042AF3B9D0DF184093A9CD346FFF7D6BA56
:1031B000119839AA0C9902F0D3FA00287EF433AFA3
:1031C000429ED1463B9D002E7FF46EAE65E6A04642
:1031D0001C460134C9F80080072CC9F80460354446
:1031E0003A943B95D8BF09F108090ADD119839AA2C
:1031F0000C9902F0B5FA00287EF415AF3B9DD1463C
:103200003A9C01340E9B139A072C1D44C9F80430D4
:10321000C9F800203A943B957FF778A8FFF7ABBA3E
:10322000119839AA0C9902F09BFA00287EF4FBAEA3
:10323000429ED1463B9D3A9C47E60627BBE64B465D
:10324000A4E52D228DF80F21FFF7E1B81398002196
:10325000149102F055FA149B1294189320EAE0722C
:1032600010900A929DF80F21FEF781BF49F2046881
:1032700006F108033B9DC0F600083A9CFEF7C2BF6A
:10328000119839AA0C9902F06BFA00287EF4CBAEA3
:103290003B9DD146FFF7E3BB119839AA0C9902F088
:1032A0005FFA00287EF4BFAE429A53463B9D75E517
:1032B000119839AA0C9902F053FA00287EF4B3AEA3
:1032C000429A53460E983B9D821A7EE5139B0BF162
:1032D000280BC3EB0B031093FEF73FBF49F20468C2
:1032E0003A9CC0F60008FFF74BB8119839AA0C9920
:1032F00002F036FA00287EF496AE53463B9D45E533
:10330000062F28BF062749F25C6027EAE771C0F65E
:1033100000001A4610970A91129414931893139070
:10332000FEF725BF1699662940F08F80429B002B3F
:10333000109340F398801FB9089810F0010F02D045
:103340005A1CD219109218931695F4E610982D2253
:1033500000218DF80F2120EAE07014910A90FEF709
:1033600007BFB846032349E633463A9C0836DFF8E0
:103370002481FFF7BEBA409B9C427FF679AE302293
:1033800003F8012BA3424093FAD171E60E9A9342BF
:103390002EDB089C14F0010F3DD0581C67251090BF
:1033A000D1E727EAE77214900A9212949DF80F2150
:1033B00010971890FEF7DBBE002747EAE777FEF785
:1033C000B9BDB846022319E62D2103F10049149135
:1033D000FDE5303330223FA98DF8FA208DF8FB301F
:1033E0009AE603F108093A9CDFF8A880FFF7E6BBEC
:1033F000002B0E99D4BFC3F1020201225218672597
:103400001092A0E7409B33E6089A12F001037FF484
:103410008DAE18938FE6672595E71A980022002352
:10342000494604F0FFF800287FF415AEC8F1010307
:10343000429310E609F108033A9CDFF858809AE4B9
:103440002D225B428DF8F9203AE6429B2DE6129838
:1034500007680430002FBFF643A913784FF0FF37F9
:103460001290FEF766BD1FB9089911F0010F02D046
:103470000237109767E70122109264E7119C4FF022
:10348000FF320C230F922360FEF7D6BD0DF1FA0137
:1034900042E600BF149600082DE9F04F83B003699F
:1034A00081460D6901919D4200F38980EA1C01F17A
:1034B000140400F11408013D92008B1882181F1D9E
:1034C00059685068013103F04FFB064600283CD094
:1034D000002042462346864653F804CB11681FFA63
:1034E0008CFB4FEA1C4C1FFA81FA0BFB060BD644EF
:1034F0000CFB06F000EB1B401FFA8BFBCBEB0E0A1C
:103500001FFA80FE000CCEEB114E9F420EEB2A4EAE
:103510001FFA8AFC4CEA0E414FEA2E4E42F8041B79
:10352000DAD22A1D09EB8203596871B998450AD28B
:1035300059F822203AB9043B02E053F8042912B9A1
:10354000013D9845F9D3C9F810504846019901F05A
:1035500075FD00282FDB013643464FF0000C54F870
:10356000040B19681FFA80FA000C8AB2C0EB1141F3
:10357000CAEB0202A742944401EB2C421FFA8CFCD6
:103580004CEA02414FEA224C43F8041BE7D22A1DC1
:1035900009EB8203596871B998450AD259F822207B
:1035A0003AB9043B02E053F8042912B9013D9845A9
:1035B000F9D3C9F81050304603B0BDE8F08F0020B1
:1035C000FAE700BF2DE9F04F9FB0456A04469046E8
:1035D00099462B9E002D00F090832B6853B16A68AA
:1035E0000125194695409D605A6001F0E5FA636A2D
:1035F00000221A60B9F10005C0F2D38000233360C5
:1036000000231A46C7F6F073C7F6F07205EA030303
:10361000934200F0AF800022002340464946CDE9A6
:103620000289012603F0FEFF88B916F0FF0F12D1C0
:103630002A9801232C99036049F26460C0F60000C7
:1036400011B17B4B581E0B601FB0BDE8F08F0026F8
:1036500016F0FF0FECD02046DDE902231CA90091F3
:103660001DA9019101F0FEFDC5F30A568246002E08
:1036700000F0AC800398A6F57E761D9F073E20F0F3
:103680007F43002123F47003169143F07E5343F4EB
:10369000E00303930023DDE902010022C3F6F8737F
:1036A00003F0A4FB5CA3D3E9002303F053FD5CA368
:1036B000D3E9002303F09CFBCDE90201304603F07F
:1036C000E3FC59A3D3E9002303F044FD02460B4673
:1036D000DDE9020103F08CFBCDE9020103F0D4FF28
:1036E000002200230546DDE9020103F0A5FF40B1F9
:1036F000284603F0C9FCDDE9022303F093FF00B97B
:10370000013D162D00F2558249F298614246C0F6FD
:1037100000014B4601EBC501D1E9000103F0AAFF0E
:10372000002800F00083013D00201590013FBE1BE2
:1037300000F1F48200200B960D90002DC0F2E6827D
:103740000B990022119549190F920B91289A092A79
:1037500070D8052A40F390860027043A28922898CA
:10376000831E032B00F20A84DFE813F00204EC034B
:10377000CC0305042A9842F20F73036049F2746087
:10378000C0F60000B8F1000F11D02C9900293FF4C9
:103790005BAFC278C31C0AB100F108032C9A136016
:1037A00052E725F000450123A946336028E749F296
:1037B000686249F27463C5F31300C0F60002C0F6F4
:1037C000000300280CBF10461846DEE71D9F1C9B17
:1037D000FB1803F586639E1C202EDCBFC6F120007B
:1037E00008FA00F007DDC6F140001E3B854028FACC
:1037F00003F345EA03000122169203F035FCA6F517
:103800008666033E0B460246CDE90223039BA3F1E5
:10381000F87303933EE700BF61436F63A787D23F0E
:10382000B3C8608B288AC63FFB799F501344D33FAF
:103830006596000800204FF0FF31074601222890CE
:103840000E9110920A912990666A002373602046B7
:10385000716801F07DF9636A30601B680C93002F7A
:1038600000F0DE80002D40464946CDE90889CDE9CB
:10387000020140F32E8449F2986305F00F02C0F66E
:1038800000032E1103EBC20316F0100F08BF4FF018
:103890000208D3E90001CDE9120140F04782BEB130
:1038A00049F26077DDE91223C0F6000716F0010F38
:1038B0001046194607D0D7E9002308F1010803F0A4
:1038C00049FC02460B4608377610EFD1CDE91223AA
:1038D000DDE90801DDE9122303F066FDCDE9080109
:1038E0001599002938D00023DDE908010022C3F62C
:1038F000F073012603F0A0FE002800F001830A9A6D
:10390000002AD4BF002606F001062EB30E9B002B22
:1039100040F3828000230022C4F22403DDE9080181
:1039200003F018FCCDE9080108F10100691E1291AD
:1039300003F0AAFB02460B46DDE9080103F00AFC8E
:1039400000230022C4F21C0303F052FADDF838B061
:103950008046A1F150793CE2404603F095FBDDE959
:10396000082303F0F7FB00230022C4F21C0303F03A
:103970003FFA0A9AA1F150768046B146002A40F0FB
:10398000258200230022C4F21403DDE9080103F0BC
:103990002DFA42463346CDE9080103F06BFE0028BC
:1039A00040F00F824246DDE9080106F1004303F0D2
:1039B00043FE002830D0DDF828B0CDF820B0299B98
:1039C00000270C9EDD435946204601F0F5F8089982
:1039D00071B13B1E18BF01238F420CBF002303F0BF
:1039E0000103002B40F05E832046089901F0E4F8C3
:1039F0002046514601F0E0F80023337001352A9A41
:103A00002C9B1560002B00F018841E600C981BE6A0
:103A1000189DDDF85CA0089CDDE90201804689461E
:103A20001C9BDF43FF0F0E2DCCBF002707F00107C3
:103A3000002F00F0C18049F298632999C0F6000375
:103A40000A9A03EBC503CF0FD3E90001002ACCBFCC
:103A5000002707F00107CDE90201002F40F09E8109
:103A600002460B4640464946CDE9048903F09CFCDA
:103A700003F00AFE0C9E814603F006FBDDE90223FB
:103A800003F068FB02460B46DDE9040103F0AEF9E2
:103A900009F13003CDE9040106F8013B0A9A012A35
:103AA00056D000230022C4F224034FF0010803F093
:103AB00051FB00220023CDE9040103F0B3FD00B166
:103AC000B84618F0FF0F93D00A9937460C98A046D5
:103AD000079500EB010BCDF828A05D46DDE904ABAE
:103AE0000DE003F037FB0022002382468B4603F0F3
:103AF00099FD00B1002414F0FF0F00F00F84DDE900
:103B0000022350465946012403F04EFC03F0BCFD4D
:103B1000814603F0B9FADDE9022309F1300603F02A
:103B200019FB02460B465046594603F05FF9002345
:103B300007F8016B0022AF42C4F224033E468246DE
:103B40008B46CED1CDE904AB4446079DDDF828A0D5
:103B5000DDE9040102460B4603F04AF9CDE9040110
:103B6000DDE90423DDE9020103F066FD60B9DDE96A
:103B70000201DDE9042303F055FD00283FF438AFCE
:103B800019F0010F3FF434AF12950C98334613F837
:103B9000011C5A1E1E461346392940F0E183834218
:103BA000F5D10C983121129B5D1C302303701170EC
:103BB0001EE701211591B9E51099002940F0C78051
:103BC000109B0F9F0D9E0893002E0B98D4BF0023CF
:103BD00001230028D4BF002303F001034BB10346A7
:103BE0000D99B342A8BF3346F61AC91AC01A0D91EF
:103BF0000B900F9A002A1ADD109B002B00F0948383
:103C0000002F10DD08993A46204601F06FF9524620
:103C100008902046089901F0D5F851468346204681
:103C200000F0CAFFDA460F98C21B40F084830121DE
:103C3000204601F0BDF811990029834605DD59465B
:103C40002046119A01F052F98346289A012A40F33E
:103C50009E8100271199002940F0F28201230B9ADE
:103C60009B1813F01F0300F02282C3F12003042BE2
:103C700040F3F683043B0D98F618D218C0180B9247
:103C80000D900D9B002B05DD514620461A4601F094
:103C90007FF982460B98002805DD594620460B9A8D
:103CA00001F076F983461599002940F0D3822899CE
:103CB0000A9A0229D4BF00230123002ACCBF002383
:103CC00003F00103002B00F07C81002A7FF477AE23
:103CD000594605220A9B204600F08AFF834650463B
:103CE000594601F0ABF900287FF769AE0C9E3123ED
:103CF0000135002706F8013B65E6102000F010FCB6
:103D00006062456085600560C56073E40D9B684234
:103D100000210F905B1B11910D9317E57642002354
:103D20000D960B9309E500221592FFE449F26073AA
:103D30004046C0F60003494606F00F064FF0030860
:103D4000D3E9082303F030FBCDE90801A7E5289A61
:103D5000012A40F3F6820A990F9A4B1E9A42A8BF95
:103D6000C3EB02070A9ABFBF0F981199C0EB030378
:103D7000C918BEBFC01811910F90002AC0F2F98275
:103D80000D9E0A9B0D9A20460121D2180D920B9A86
:103D9000D2180B9201F00CF8089015E70A9B002B43
:103DA00040F0D88200230022C4F21403DDE90201AE
:103DB00003F0D0F942464B4603F052FC00287FF452
:103DC000FAADDDF828B0CDF820B08FE7DDF828B0E7
:103DD0001295109B002B00F0AF8149F298630021EF
:103DE000C0F60003002003EBCB03C3F6E0710C9E8A
:103DF00053E9022303F0D8FA42464B4602F0F6FF9D
:103E000080468946DDE9080103F03EFC074603F0E1
:103E10003BF902460B46DDE9080102F0E7FF07F136
:103E20003003CDE90801404606F8013B4946DDE98B
:103E3000082303F01FFC002840F0FC810021DDE98D
:103E400008230020C3F6F07102F0D0FF02460B46B3
:103E50004046494603F00EFC00287FF496AEBBF1C5
:103E6000010F7FF7D9AD0C98374618958344CDF8EC
:103E70005CA05D46DDE908AB08940FE0002100205E
:103E8000C3F6F07102F0B2FF42464B4603F0D4FB9A
:103E9000002840F06A82AF423FF4BAAD002300220E
:103EA000C4F224034046494603F054F9002300229B
:103EB000C4F22403804689465046594603F04AF925
:103EC0008B46824603F0E0FB044603F0DDF8303415
:103ED00002460B465046594602F088FF42464B4682
:103EE00007F8014B3E4682468B4603F0A5FB52463F
:103EF0005B460028C2D0DDF85CA0089C129D77E5E7
:103F00000026FCE40123109329990029C2BF8B46A7
:103F10000E910A9140F3B481666A0022BBF1170F3B
:103F2000726040F2A18204235B00013203F11401AC
:103F30005945F9D90A9B72600E2B8CBF002707F0F8
:103F4000010784E400231093299828180E9000F1AB
:103F5000010BBBF1000FC8BFCDF828B0DCDCBBF112
:103F60000E0F8CBF002707F00107CDF828B06BE4D7
:103F700000201090C8E701221092E5E74FF0FF33D0
:103F8000002701200E9310900A9329975CE4B8F162
:103F9000000F7FF45EAEC9F313034746002B7FF496
:103FA00059AEC7F6F07309EA03031F46002B3FF42E
:103FB00051AE0D9B01270B9801330D9301300B90EF
:103FC00048E61098002800F06181002E05DD2046AB
:103FD0000899324600F0DCFF0890002F40F0ED8198
:103FE000089802900A9908F001020C9E089F711827
:103FF0000A920B91089559465046FFF74DFA3946FB
:104000004FF0010930300790504601F017F859463B
:10401000029A0546204601F02FF8C3688046002B1F
:104020003AD02046414600F0C7FD289B59EA0303D9
:1040300003D10A98002800F0F381002DC0F29D8181
:104040002898284303D10A99002900F09681B9F1F4
:10405000000F00F3D281079A06F8012BB0460B9BA4
:104060009E4200F0C68151460A220023204600F0FD
:10407000BFFD82460298874222D039460A22002399
:10408000204600F0B5FD02990A220023074620468B
:1040900000F0AEFD0290AEE75046414600F0CEFF84
:1040A0008146BEE72046394600F086FD9CE41C238D
:1040B0000D99F6180B9AC9180D91D2180B92E0E5DC
:1040C000394620460A22002300F092FD074602905E
:1040D00091E76E42002E00F01D8106F00F0349F2B9
:1040E0009862C0F60002DDE9080102EBC303D3E9E0
:1040F000002303F02FF83611CDE9080100F00A8102
:1041000049F260774FF00208C0F6000702460B46FE
:1041100016F0010F1046194607D0D7E9002308F121
:10412000010803F017F802460B4608377610EFD166
:10413000CDE90823FFF7D4BB0BF1FF321792179894
:1041400049F29861C0F6000142464B460C9E01EBD5
:10415000C001D1E9000102F0FDFFCDE91801DDE960
:10416000080103F091FA074602F08EFF0B46024663
:10417000DDE9080102F03AFEBBF1010F07F130035F
:10418000CDE9080106F8013B2BD00C991B9501F1F4
:10419000FF390F46D944DDE90801D3464D46B24602
:1041A000264600230022C4F2240302F0D3FF8946EE
:1041B000804603F069FA044602F066FF3034024696
:1041C0000B464046494602F011FE07F8014FAF4248
:1041D000E7D1179A34461B9D5646B618DA46CDE904
:1041E000080100230022C3F6E073DDE9180102F0A4
:1041F000FFFD02460B46DDE9080103F03BFA00280B
:104200007FF4C3AC0021DDE918230020C3F6E07180
:1042100002F0ECFD02460B46DDE9080103F00CFA62
:1042200000283FF4F9AB33461E46013B16F8012C3B
:10423000302AF9D0129DFFF7DBBB0C98FFF704BAC8
:10424000DBF810300BEB8303186900F05FFDC0F161
:10425000200304E55046594600F0F0FE0028BFF662
:1042600026AD51460A222046002300F0C1FC109AD8
:10427000013D8246002A40F0E9800E980A9016E53A
:1042800001220E920A922992FFF7DEBA0C9E0127B4
:10429000DDF82890029502E000F0AAFC824659461B
:1042A0005046FFF7F9F80A2200234F45514607F11F
:1042B000010700F13005204606F8015BB046EBDB54
:1042C00007950027029D51460122204600F060FE1E
:1042D0005946824600F0B2FE00280FDD0C9A464691
:1042E00008F1FF3816F8013C392B61D19045F6D121
:1042F0000C98312301350370FFF765BB03D1079A92
:1043000012F0010FEAD1464618F8013D302BFAD0E1
:10431000FFF759BB4FF00208FFF7E2BA079D44468A
:10432000DDF828A0FFF764BB514620460F9A00F045
:10433000DDFD82467BE45146204600F0D7FD8246F3
:1043400075E4169800284ED003F586630F9F03335B
:104350000D9E17E54FF0000BCDF820B0FFF72FBBF7
:104360000131129D1170FFF743BBDDF85CA0089C82
:104370000BE40D9B9E1A002304E5B9F1000F089D84
:104380000FDD51460122204600F002FE59468246CA
:1043900000F054FE002853DD079B392B39D0013340
:1043A000079302980799089006F8011BFFF70BBBCB
:1043B000013388F80030FFF706BB089A20465168A1
:1043C00000F0C6FB089B03F10C011A69023292004F
:1043D00006460C30FDF74EFC20463146012200F027
:1043E000D7FD0290FEE51D9B0F9F0D9EC3F1360386
:1043F000C8E40299089D089165E7079A089D392A43
:1044000007D0029907980891431C06F8013BFFF773
:10441000DABA029BB0460893392308F8013B5DE7FE
:1044200007992B46089D3929F3D0002B01DD013176
:104430000791029A079B089206F8013BFFF7C3BA5F
:10444000AFD1079A12F0010FABD0A5E700232046A9
:1044500008990A2200F0CCFB0E9B0A93089026E4F0
:104460003FF40FAC1C3323E60A990E298CBF0027BA
:1044700007F00107FFF7EBB90127FFF770B900BF9D
:1044800010B514463AB149F27C611046C0F60001FD
:1044900001F048F820B949F27860C0F6000010BD7C
:1044A00049F278612046C0F6000101F03BF820B9DE
:1044B00049F27860C0F6000010BD49F24461204620
:1044C000C0F6000101F02EF849F27863C0F600034F
:1044D00000280CBF1846002010BD00BF40F230106D
:1044E000C2F20000704700BF40F23013C2F2000376
:1044F000186A704700487047540100200020704738
:10450000004870477401002040F23C030A46C2F2A2
:10451000000301461868B3E70048704774010020A3
:1045200040F23C030146C2F20003186800F008B8EC
:1045300040F23C030146C2F20003186801F086BF56
:104540002DE9F04F01F10B04162C83B0064631D94A
:1045500024F00704E30F8C422CBF194643F00101FD
:10456000002930D1304600F0EFFAB4F5FC7F2FD2AD
:104570004FEAD40C40F2AC15C2F2000505EBCC02B8
:104580002F46D368934200F02D825C6803F108083F
:10459000DA68304624F0030499681B195C68CA6025
:1045A00044F0010491605C6000F0D0FA404603B032
:1045B000BDE8F08F002310248C422CBF194643F035
:1045C00001010029CED00C234FF000083360EDE745
:1045D0005FEA542C04BF4FEAD40C4FEACC0040F001
:1045E000868040F2AC15C2F2000528182F46C36839
:1045F000984206D10DE0002980F27981DB6898426B
:1046000007D05A6822F00302111B0F29F3DD0CF1C9
:10461000FF3C0CF1010CBD4A93689A4208BF7868D0
:1046200024D0586820F00300011B0F2900F3C0813B
:104630000029D260926080F29480B0F5007F80F013
:104640007781C0084FF0010ED7F8048007EBC00156
:1046500080100EFA00F0D960D1F808E040EA0800B6
:104660007860C3F808E0CEF80C308B604FF0010E94
:104670004FEAAC030EFA03FE86457DD810EA0E0F12
:1046800008D12CF0030C4FEA4E0E0CF1040C10EA8A
:104690000E0FF8D007EBCC0AE146D046D8F80C0054
:1046A000804507D196E1002B80F2A681C068804545
:1046B00000F09081416821F003010B1B0F2BF2DD0C
:1046C0008046C568011944F0010E58F8087F43F090
:1046D0000104C0F804E030464C60FD60AF60D1607A
:1046E0009160CA608A60CB5000F030FA5EE7BCF19E
:1046F000040F9EBF4FEA941C0CF1380C4FEACC001B
:104700007FF66FAFBCF1140F9CBF0CF15B0C4FEA4E
:10471000CC007FF666AFBCF1540F9EBF4FEA143C4D
:104720000CF16E0C4FEACC007FF65BAFBCF5AA7FB4
:104730009EBF4FEAD43C0CF1770C4FEACC007FF6D9
:1047400050AF40F254539C4595BF4FEA944C4FF400
:104750007C700CF17C0C4FF07E0C98BF4FEACC00C3
:104760003FE71A1803F108083046536843F0010385
:10477000536000F0EBF919E7D7F80880D8F8043057
:1047800023F003094C45C4EB090294BF0023012325
:104790000F2AD8BF43F00103002B00F0B98040F28C
:1047A000C45AD5F80834C2F2000A3046B3F1FF3FCC
:1047B000DAF8002002F1100BA3441FBF0BF57E6B4B
:1047C0000BF11F0B2BF47E6B2BF01F0B594600F0E7
:1047D00095FEB0F1FF3F034600F0188108EB090198
:1047E000814200F21081DAF8042081425A44CAF86A
:1047F000042000F03E81D5F808E440F2AC15C2F286
:104800000005BEF1FF3F17BF8218C5F80804C1EBD1
:104810000201CAF8041010F0070517BFC5F108051A
:104820004FF48055431905F5805503EB0B023046D4
:1048300001931205120DAD1A294600F05FFE019B8F
:10484000B0F1FF3F00F02C81C11A491941F001017C
:10485000DAF80420B84540F2C45BBB602A44C2F2D7
:10486000000B5960CAF8042017D0B9F10F0F40F2BD
:10487000E180A9F10C03D8F8045023F007030520C8
:1048800008EB03010F2B05F0010543EA0505C8F805
:1048900004504860886000F2FB80DAF82C1040F287
:1048A000C453C2F200038A42DAF8301088BFDA62D9
:1048B00040F2C4538A42C2F2000340F2A780D7F804
:1048C00008801A63D8F8043023F003039C42C4EB39
:1048D000030294BF002301230F2AD8BF43F0010332
:1048E000B3B130464FF0000800F030F95EE69A1898
:1048F000D9689C6803F108085568304645F0010303
:10490000E1608C60536000F021F94FE6B4010020B3
:1049100008EB040342F0010244F001043046C8F8F9
:10492000044008F108085A60BB6000F00FF93DE64A
:10493000410A04299CBF4FEA901E0EF1380E1DD982
:10494000142998BF01F15B0E18D954299CBF4FEA76
:10495000103E0EF16E0E11D9B1F5AA7F9CBF4FEA41
:10496000D03E0EF1770E09D940F2545E714596BFE4
:104970004FEA904E4FF07E0E0EF17C0E07EBCE0804
:10498000D8F80810414503D147E08968884505D02B
:10499000D1F804E02EF0030E7045F6D3D1F80CE008
:1049A000C3F80CE099607868CB60CEF808305DE61B
:1049B0001D1941F00107D56044F0010495603046AF
:1049C0005C6003F10808EA60AA606F60695000F05B
:1049D000BDF8EBE509F1010919F0030F2FD008F13B
:1049E00008085BE603F108025B699A4208BF0CF114
:1049F000020C3FF410AEC8E580464318C26830464A
:104A000058F8081FCAE5B8453FF4EDAED7F808805E
:104A1000D8F8043023F0030358E74FF00109D7F822
:104A200004804FEAAE008E4609FA00F048EA000022
:104A30007860B5E7984601225A60002346E7514660
:104A40001CF0030F0B460CF1FF3C2CD053F8081957
:104A50009942F5D07B684FEA4E0E9E453FF68CAEEC
:104A6000BEF1000F3FF488AE1EEA030F20D0CC4603
:104A700010E64FEA015E4FEA1E5EBEF1000F7FF4C2
:104A8000BAAEBB680BEB090141F00101596004E7C4
:104A9000304608F1080101F0D9FCDBF80420FCE6FF
:104AA00001210025D4E67B6823EA0E037B60D1E771
:104AB0004FEA4E0E09F10409D6E700BF10F0030FCC
:104AC000034670B4C9B211D0002A22D003788B42B9
:104AD0001DD0013A013005E0DAB110F8014B013A7E
:104AE0008C4218D010F0030F0346F5D1032A14D8D6
:104AF0007AB1187888420ED0541E5D1C03E015F878
:104B0000016B8E4203D0013C2846F8D2002070BCD5
:104B100070471046FBE71846F9E741EA012646EAE6
:104B20000646184653F8044B86EA0404A4F10135FE
:104B300025EA040414F0803F03D1043A1846032AFE
:104B4000EFD80346D4E700BF704700BF704700BFEF
:104B500070B50646446A0D465CB1E3689BB153F8F4
:104B60002500E0B1026843F8252000230361C360FB
:104B700070BD1020FFF7D4FC002304467062436030
:104B800083600360C36030460421212201F0DCFB16
:104B9000736AE060DB68002BE1D1184670BD012428
:104BA00030462146AC40621D920001F0CDFB00284A
:104BB000F4D045608460D8E730B50446456A83B0D8
:104BC00055B139B1636A4A68DB6853F8220008605E
:104BD00043F8221003B030BD10200191FFF7A0FC74
:104BE00001996062456085600560C560E9E700BFC6
:104BF0002DE9F0410C4605460E6901F1140082B022
:104C00000021076801311FFA87FC3F0C0CFB0233BF
:104C100007FB02F707EB13471FFA83FC3B0C8E429E
:104C20004FEA074808EB0C0740F8047BE9DC3BB18E
:104C3000A268964208DA04EB8602013626615361C7
:104C4000204602B0BDE8F081616828460193013139
:104C5000FFF77EFF226904F10C0102329200074641
:104C60000C30FDF707F8214628463C46FFF7A4FF25
:104C7000019BE0E72DE9F84348F639651F46C3F686
:104C8000E30508330E460446904685FB0315DB1703
:104C9000C3EB6503012B37DD0122002152000131F6
:104CA0009342FBDC2046FFF753FF089B436101233F
:104CB000B8F1090F0146036122DD06F109094644F6
:104CC0004D4615F8013B0A222046303BFFF790FF86
:104CD000B5420146F5D109EB0806083E47450CDD13
:104CE000F719C8EB070716F8013B0A222046303BAC
:104CF000FFF77EFFBE420146F5D10846BDE8F883C6
:104D00000A364FF00908E9E70021CBE7020C034619
:104D100019D10304102013F07F4F01D108301B027A
:104D200013F0704F01D104301B0113F0404F01D13B
:104D300002309B00002B05DB13F0804F01D00130C7
:104D40007047202070470020E5E700BF0368024657
:104D500013F0070009D013F0010F21D113F0020F57
:104D600022D19B0802201360704799B209B91B0C2D
:104D7000102013F0FF0F01D108301B0A13F00F0FA2
:104D800001D104301B0913F0030F01D102309B083D
:104D900013F0010F02D15B0804D00130136070479B
:104DA00000207047202070475B0801201360704787
:104DB00010B50C460121FFF7CBFE012244610261D0
:104DC00010BD00BF2DE9F04F90460F690D461669E2
:104DD00085B0B742BFBF45463A4637461646AB6830
:104DE000B8BF8846F41969689C42C8BF0131FFF713
:104DF000AFFE00EB840300F1140C143301909C45CA
:104E0000029306D202996346002243F8042B99428A
:104E1000FBD808EB860605EB870708F11408143663
:104E200014351437B04500954DD2039458F8044B0F
:104E3000A0B2F0B1009A6346002452F8045B1968EE
:104E40001FFA85FA2D0C1FFA81F9090C00FB0A994B
:104E500000FB0511A14401EB19411FFA89F90C0C63
:104E6000974249EA014543F8045BE6D81C6058F8CC
:104E7000044C240C21D0DCF800206046009BE14665
:104E800011460025B3F800A01FFA82FB0AFB045567
:104E900005EB11454BEA054240F8042B53F8042B6F
:104EA00059F8041F120C1FFA81FA02FB04A202EB4C
:104EB0001542150C9F42E5D80260464502D90CF117
:104EC000040CB3E7039C002C0ADD02990B1F51F878
:104ED000042C1AB104E053F8042D0AB9013CFAD1AC
:104EE000019A1046146105B0BDE8F08F12F003037B
:104EF0002DE9F04115460446884628D1AD101AD058
:104F0000666A002E2FD0B7682FB936E06D1012D028
:104F10003E689EB1374615F0010FF7D041463A463C
:104F20002046FFF74FFF414606462046FFF744FE66
:104F30006D10B046ECD14046BDE8F08139463A46A6
:104F40002046FFF73FFF386007460660E3E749F277
:104F500088625E1EC0F60002002352F82620FFF78A
:104F600047FE8046CAE71020FFF7DAFA002306461C
:104F70006062436083600360C360204640F2712139
:104F8000FFF716FF0023B06007460360C3E700BFCA
:104F90002DE9F84356110D690C468B689046013592
:104FA0008146AD1949689D4203DD5B0001319D4298
:104FB000FBDC4846FFF7CCFD002E074600F114024B
:104FC0000ADD00231946013342F8041BB342FAD12B
:104FD00007EB830303F11402266904F1140104EBC7
:104FE0008606143618F01F081AD0C8F1200E0020CB
:104FF0000B6803FA08F3184342F8040B51F8040B4A
:105000008E4220FA0EF0F3D8106000B10135484608
:10501000013D21463D61FFF7CFFD3846BDE8F883ED
:1050200051F8043B8E4242F8043BF0D951F8043B5E
:105030008E4242F8043BF3D8E9E700BF03460A6911
:10504000006930B4801A0FD1043203F114059200C4
:105050009B1889180433043153F8044D51F8042D7A
:10506000944203D19D42F7D330BC704738BF4FF014
:10507000FF30F9D30120F7E72DE9F84F89460446C0
:10508000114648469046FFF7D9FF051E64D0BCBFC5
:105090004B46C1462046B8BF9846D9F80410ACBF6D
:1050A0004FF0000A4FF0010AFFF752FDD9F81060E7
:1050B00009F11405D8F8103008F11407002409EBA1
:1050C000860909F1140983461430CBF80CA008EBCB
:1050D000830A0AF1140A55F8041B034657F8040B17
:1050E0002A461FFA81F81FFA80FC000CCCEB080C52
:1050F000C0EB1140644400EB2440A4B244EA0041F8
:105100000414BA4543F8041B1846E4D8A9451F46C1
:1051100014D952F8041B88B2090C241801EB24415D
:10512000A4B244EA01400C14914543F8040BF0D8B2
:10513000EB434B4423F003030433FB1853F8042CD4
:10514000043B22B953F8042D013E002AFAD0CBF8D3
:1051500010605846BDE8F88F20462946FFF7F8FC56
:1051600001238346456103615846BDE8F88F00BFBF
:105170000023C7F6F07301EA0303A3F15073002B79
:1051800002DD1946002070475B421B15132B0DDD15
:10519000143B00211E2B02DD01231846704701221B
:1051A000C3F11F0312FA03F3184670474FF40022AD
:1051B000002052FA03F170472DE9F04100F1140686
:1051C00004690F46043450F8245000EB8404A046D0
:1051D0002846FFF79BFD0A28C0F120033B6015DC41
:1051E000C0F10B0135FA01F7A64247F07E5747F4AC
:1051F000E00333D254F8044C34FA01F11530854001
:1052000041EA050210461946BDE8F081A64221D3C5
:1052100000210B3802BF45F07E550A4645F4E003F5
:10522000F0D08540C0F1200745F07E55B44221FA08
:1052300007FC45F4E00545EA0C0311D954F8044C89
:1052400034FA07F711FA00F0194647EA000210464F
:10525000BDE8F081043C58F8041CDAE70021CDE7F2
:105260000027EFE72DE9F04383B001211D461446E6
:105270000A9F0B9EFFF76CFCC5F30A5925F07F438C
:1052800023F4700300938046B9F1000F02D043F479
:1052900080130093002C25D002A840F8044DFFF79E
:1052A00055FD002836D1019A009BC8F81420002B28
:1052B0000CBF01240224C8F81830C8F81040B9F116
:1052C000000F1DD108EB8403A0F58660023838601A
:1052D00018696401FFF71AFD241A3460404603B0D0
:1052E000BDE8F0836846FFF731FD01231C46C8F88E
:1052F0001030009BC8F814302030B9F1000FE1D015
:10530000A9F58669C0F13503A9F10309484438605D
:105310003360E3E7009BC0F12002019913FA02F227
:10532000C3400A430093C8F81420C0E72DE9F041B8
:1053300082B0884601A90646FFF73EFF0D460446A7
:1053400069464046FFF738FFD8F810E0D6F810C09D
:10535000DDF80480CEEB0C0CDDF800E04FEA4C1CCD
:10536000CEEB080EE644BEF1000F4FEA0E5EC4BF5E
:105370000EEB05073D460B46D8BFCEEB01010246BA
:10538000DCBF0B4602462946204602F00DF802B06B
:10539000BDE8F081172810B504460CDD002100207F
:1053A000C3F6F07100230022C4F2240301F0D2FE00
:1053B000013CF7D110BD49F28863C0F6000303EB4E
:1053C000C003D3E9040110BD70B40139166902F1BC
:1053D00014034911013102EB8606143600EB8101FA
:1053E000B3420CD2044653F8045B9E4244F8045B7B
:1053F000F9D8B31A153B23F003030433C0188142D4
:1054000004D9002340F8043B8142FBD870BC7047AC
:1054100002694B1110B49A4211DB0FDD11F01F012C
:105420000CD01A4600EB83035B6933FA01F414FADB
:1054300001F1994203D0012010BC70471A46043292
:1054400000F1140100EB82031C1DA1420BD250F8A5
:105450002220002AEFD1994205D253F8042D002AC8
:10546000E9D19942F9D30020E6E700BF50EA0103F1
:1054700010B43CD0D0F1010238BF0022B1F1004F8E
:1054800014BF002302F00103002B30D14FF6FF734D
:10549000A1F58010C7F6DF7301F1FE44984204F5D0
:1054A00070048CBF002001209C428CBF034640F05A
:1054B0000103002B20D1B1F5801F01F100402CBF6A
:1054C00000230123B0F5801F38BF43F001038BB9DF
:1054D00011F5801FC7F6F07314BF00200120994218
:1054E00014BF014640F0010102EA010000E0022081
:1054F00010BC70470320FBE70420F9E738B540F201
:105500001064C2F200040546084600232360FBF73E
:105510009BFDB0F1FF3F00D038BD2368002BFBD0CE
:105520002B6038BD80EA010212F0030F3AD110F06F
:10553000030220F0030021F0030150F804CB08BF60
:1055400051F8043B0DD082F003024FEAC2026FF023
:105550007F4323FA02F251F8043B4CEA020C43EA7F
:10556000020300BFACF101329C4501BF22EA0C02EC
:1055700012F0803F50F804CB51F8043BF2D04FEAD0
:105580000C604FEA1C2C012828BFB0EB036F08BF4A
:105590001B0AF4D003F0FF034FEA1060A0EB0300F6
:1055A000704700BF10F0030F0AD010F8012B11F85C
:1055B000013B012A28BF9A42F4D0A2EB03007047B6
:1055C0004DF8045D4DF8044D4FF0010242EA02220D
:1055D00042EA024201F0030C21F0030150F8044BAF
:1055E00051F8045BBCF1020F26D04BD824F07F4C5D
:1055F000BCEB152FA4EB020323EA04030DD113EA3D
:10560000C21308BF51F8045B0AD18CEA040CBCEB4E
:10561000056F0CD150F8044BE8E74FEA15255CE024
:1056200033F07F4352D10D784FEA146C55E04FEAC6
:10563000146C05F0FF0550E04FEA044CA4EB0203A4
:105640004FEA1C4C23EA0403BCEB154F17D113EAB5
:10565000C21308BF51F8045B07D18CEA040CBCEB01
:10566000054F08D150F8044BE6E71B042ED10D88F6
:105670004FEA144C31E04FEA05454FEA144C4FEA2B
:1056800015452AE004F0FF0CBCEB156FA4EB0203F8
:1056900023EA04030DD113EAC21308BF51F8045BD7
:1056A0000AD18CEA040CBCEB052F0AD150F8044B4C
:1056B000E8E74FEA156510E014F0FF0F06D051F847
:1056C000045B4FEA142C25F07F4506E04FF0000004
:1056D0005DF8044B5DF8045B70470CF0FF0205F0C9
:1056E000FF00012828BF904204BF4FEA1C2C2D0A5E
:1056F000F3D0A2EB00005DF8044B5DF8045B70474B
:1057000020F0030110F00300C0F1000051F8043B49
:1057100000F1040C4FEACC0C6FF000021CBF22FA1F
:105720000CF213434FF0010C4CEA0C2C4CEA0C4CDD
:10573000A3EB0C0222EA030212EACC1204BF51F8D6
:10574000043B0430F4D013F0FF0F1FBF013013F4FB
:105750007F4F013013F47F0F18BF0130704700BF37
:105760002DE9F04F83B091460D460190906817687F
:10577000002877D04FF0000A08688B685446002C48
:105780004CD09C421E4698463CBF2646A04635D388
:10579000AB8913F4906F31D06A6904F1010E296965
:1057A00002EB420B461A0EEB06000BEBDB7B4FEADB
:1057B0006B0B83455A463CBF8346024613F4806F09
:1057C00031D001981146FEF7BBFE8046002834D048
:1057D00029693246FCF74EFAAB8923F4906343F013
:1057E0008003AB8108EB0600C6EB0B03C5F8108005
:1057F0002646A0462860C5F814B0AB604246514624
:1058000000F0F0FED9F80820AB682868141B9B1B39
:10581000AB6040442860C9F80840ECB1D7F800A05C
:105820007C680837ABE7019800F090FF80460028BD
:10583000D8D10198296900F009FE019A0C234FF094
:10584000FF3013600023AA8942F04002AA81C9F800
:105850000830C9F8043002E02046C9F8044003B01B
:10586000BDE8F08F5060FAE72DE9F04FABB0894604
:10587000834606938B8913F0800F03D00B69002BAE
:1058800000F01585174600230CAE08930593269665
:10589000289327933B78B3F1250218BF0122002BF0
:1058A0000CBF002302F00103002B00F060837A1C80
:1058B000144601322378191E18BF0121252B0CBF75
:1058C000002301F00103002BF2D1E51B0ED0279B32
:1058D000289A01333760072B75602A442793289252
:1058E00000F3BC8308360599491905912378002BEC
:1058F00000F03F83002200230492671C8DF8A7303C
:105900004FF0FF38637892464FF0200C2B2401377C
:10591000A3F12002582A00F24E82DFE812F05A0268
:105920004C024C02FB014C024C024C024C024C0259
:105930004C02FE0014024C020A0118024C02100232
:10594000FF01FF01FF01FF01FF01FF01FF01FF0157
:10595000FF014C024C024C024C024C024C024C0225
:105960004C024C024C02C7004C024C024C024C024E
:105970004C024C024C024C024C024C02BD004C0248
:105980004C024C024C024C0259004C024C026D017C
:105990004C024C024C024C024C024C024C024C0297
:1059A0004C024C029201C9004C024C024C026901AB
:1059B000C9004C024C025F014C024C01BF00340193
:1059C00030014C020E014C025B004C024C023502CD
:1059D0004AF0100A1AF0200F00F0BF83069BDA1D70
:1059E000012322F0070202F108050695D2E90045DD
:1059F00054EA05000CBF0022012200218DF8A710F7
:105A0000B8F1000FA8BF2AF0800AB8F1000F18BF44
:105A100042F00102002A70D0012B00F04883022BD3
:105A200000F06F831CAAB44602F127030292039789
:105A3000EA08E70847EA457704F00704114604F14D
:105A400030020D463C461E461A70013B54EA0500E2
:105A5000EED11AF0010F0996039F664600F0AB8362
:105A6000302A00F0658309930299099A01F128030D
:105A70009B1A039330231370CDF81C800398079969
:105A80009DF8A7308842B8BF08460290002B00F06E
:105A9000E88001300290E4E04AF0100A1AF0200396
:105AA00000F06683069BDA1D00239AE74AF0100A8D
:105AB0001AF0200F00F043830698C31D23F007035C
:105AC00003F108010691D3E90045002C75F10000AF
:105AD000C0F2AB8354EA05014FF001030CBF002272
